:020000040800F2
:10000000A8C900202D030008935A0008194C0008C5
:10001000915A00089B1000082B880008000000007F
:100020000000000000000000000000006D02000859
:100030006514000800000000C90200087B71000878
:100040004703000847030008470300084703000868
:100050004703000847030008671400084703000827
:10006000470300086D1400087314000847030008D4
:100070004703000847030008470300084703000838
:100080004703000847030008470300084703000828
:100090009D10000847030008470300087914000872
:1000A000470300087D720008470300084703000863
:1000B00047030008470300084703000847030008F8
:1000C00047030008470300084703000847030008E8
:1000D00047030008E9770008470300089178000803
:1000E00047030008470300084703000847030008C8
:1000F000470300084703000847030008B51000083D
:1001000047030008470300084703000847030008A7
:100110004703000847030008470300084703000897
:10012000470300080D1100081911000847030008D3
:100130004703000847030008470300084703000877
:10014000A91000084703000847030008955A000853
:10015000C5130008D1130008DD1300084703000889
:100160004703000847030008470300084703000847
:100170004703000847030008470300080000000089
:10018000470300084703000800F002F800F05EF89B
:100190000AA090E8000C82448344AAF10107DA45E2
:1001A00001D100F053F8AFF2090EBAE80F0013F0D6
:1001B000010F18BFFB1A43F001031847ECE90000D8
:1001C0000CEA00000A444FF0000C10F8013B13F059
:1001D000070408BF10F8014B1D1108BF10F8015BA0
:1001E000641E05D010F8016B641E01F8016BF9D193
:1001F00013F0080F1EBF10F8014BAD1C0C1B09D1EA
:100200006D1E58BF01F801CBFAD505E014F8016B5B
:1002100001F8016B6D1EF9D59142D6D370470000ED
:100220000023002400250026103A28BF78C1FBD8FF
:10023000520728BF30C148BF0B6070471FB50DF093
:10024000ABFF00F06BFA1FBD10B510BD00F08DFACA
:100250001146FFF7F3FF0CF0CDF800F0ABFA03B452
:10026000FFF7F2FF03BC00F0AFFA00002C4B196857
:100270000868B0E8F04F80F30988BFF36F8F4FF044
:10028000000080F3118870470000000008480068F3
:10029000006880F308884FF0000080F3148862B68D
:1002A00061B6BFF34F8FBFF36F8F00DF00BF00BF9A
:1002B00008ED00E0DFF80C00016841F47001016016
:1002C000704700BF88ED00E0EFF30980BFF36F8F48
:1002D000134B1A681EF0100F08BF20ED108A20E99A
:1002E000F04F106009B44FF0500080F31188BFF355
:1002F0004F8FBFF36F8F0DF093F94FF0000080F335
:10030000118809BC19680868B0E8F04F1EF0100F9A
:1003100008BFB0EC108A80F30988BFF36F8F704775
:1003200020000020EFF30580704700000948804757
:1003300009480047FEE7FEE7FEE7FEE7FEE7FEE7C7
:10034000FEE7FEE7FEE7FEE704480549054A064BDF
:10035000704700001972000889010008A889002070
:10036000A8C90020A8A90020A8A900209FED1A1A5A
:10037000F5EE000A40EE010ABDEEE00AF5EEC00A15
:1003800010EE100AF1EE10FA38BF401E00EE100A0F
:100390001349F7EE001AB8EEC00A30EEC00ADFEDDE
:1003A0000F0A20EE200AFCEEC00A10EE900AC0F3FD
:1003B000080000EE900A01EB8000F8EE600A90ED74
:1003C000011A70EE600A90ED000A71EEE01A21EE5B
:1003D000800A00EE810A704783F9223E0000004443
:1003E0007CE30008DFED190AB5EEC00A60EE200AD2
:1003F000BDEEE01A11EE100AF1EE10FA38BF401E01
:1004000000EE100A1349F7EE001AB8EEC00A30EEFB
:10041000C00ADFED0F0A60EE200ABCEEE00A10EE23
:10042000100AC0F3080000EE100A01EB8000B8EEDD
:10043000400A90ED011A70EEC00A90ED000A71EECC
:10044000E01A21EE800A00EE810A704783F9223E0D
:10045000000000447CE3000853EA020C00F06980CD
:100460002DE9F04B4FF00006002B1FBFB3FA83F5C8
:1004700003FA05F424FA05F65E4012BF1643B2FAF9
:1004800082F502FA05F4C5F120051EBF22FA05FC2B
:1004900044EA0C04203556EA044C4FEA144418BFD1
:1004A000641C4FF000084FF00009904271EB030C00
:1004B00039D3002919BFB1FA81F701FA07F6B0FA6A
:1004C00080F700FA07F6C7F120071EBF20FA07FCE5
:1004D00046EA0C062037B6FBF4FCA7EB0507103FF5
:1004E00007F01F0BCBF120060CFA0BFB2CFA06F6DB
:1004F00044BFB3460026202FA4BF5E464FF0000B3A
:100500005BEA060C08BF4FF0010B19EB0B09ABFBC4
:10051000027C48EB0608C01B06FB02CC0BFB03CC9D
:1005200071EB0C01C1E70B46024641464846BDE867
:10053000F08B13B54FF000004FF00001AFF30080D7
:10054000BDE81C40704710B5431C02E010F8011BC9
:1005500071B18107FAD14FF0013202C88C1A8C4375
:1005600014EAC211F9D0C01A0A0603D0C01E10BD89
:10057000C01A10BD0A0401D0801E10BD0902FCD0B3
:10058000401E10BD032A40F2308010F0030C00F032
:10059000158011F8013BBCF1020F624498BF11F8BD
:1005A00001CB00F8013B38BF11F8013BA2F1040276
:1005B00098BF00F801CB38BF00F8013B11F00303EE
:1005C00000F02580083AC0F0088051F8043B083A52
:1005D00051F804CBA0E80810F5E7121D5CBF51F8F4
:1005E000043B40F8043BAFF30080D20724BF11F86E
:1005F000013B11F801CB48BF11F8012B24BF00F8D3
:10060000013B00F801CB48BF00F8012B704710B543
:10061000203AC0F00B80B1E81850203AA0E81850FA
:10062000B1E81850A0E81850BFF4F5AF5FEA027CBB
:1006300024BFB1E81850A0E8185044BF18C918C02A
:10064000BDE810405FEA827C24BF51F8043B40F8CB
:10065000043B08BF7047D20728BF31F8023B48BFB0
:1006600011F8012B28BF20F8023B48BF00F8012BEE
:10067000704702F0FF0343EA032242EA024200F01D
:1006800002B84FF000020429C0F0128010F0030CF1
:1006900000F01B80CCF1040CBCF1020F18BF00F875
:1006A000012BA8BF20F8022BA1EB0C0100F00DB824
:1006B0005FEAC17C24BF00F8012B00F8012B48BF82
:1006C00000F8012B70474FF0000200B51346944626
:1006D0009646203922BFA0E80C50A0E80C50B1F19A
:1006E0002001BFF4F7AF090728BFA0E80C5048BFAE
:1006F0000CC05DF804EB890028BF40F8042B08BF4C
:10070000704748BF20F8022B11F0804F18BF00F847
:10071000012B7047704770477047000070B5064C5A
:100720007C44064D7D4403E0206820448047241D1E
:10073000AC42F9D170BD0000A4E40000A4E40000C4
:1007400010B500F00DF8006810BD10B5044600F0BB
:1007500007F8046010BD000000487047448900207D
:10076000004870474489002070477546FFF7F4FF42
:10077000AE4605006946534620F00700854618B08E
:1007800020B5FFF7E1FDBDE820404FF000064FF037
:1007900000074FF000084FF0000B21F00701AC46B6
:1007A000ACE8C009ACE8C009ACE8C009ACE8C009D5
:1007B0008D46704710B50446AFF300802046BDE873
:1007C0001040FFF74CBD000001491820ABBEFEE70A
:1007D00026000200464910B54A6822F440324A60B9
:1007E0004A6843681A434A6001684A6822F4807282
:1007F0004A6001684A68036942EA03224A60016864
:100800004A6822F040724A6001684A6883681A4365
:100810004A6001688A6822F400628A6001688A6816
:10082000C3681A438A60816A6FF07062D1420168BE
:100830008A6822F070628A6001688A680CD0836AD4
:100840001A438A6001688A6822F040528A6001680F
:100850008A68C36A1A4301E022F040528A60016844
:100860008A6822F002028A6001688A68037E42EA8E
:1008700043028A6090F82010002901684A680FD06E
:1008800042F400624A6001684A6822F460424A60A9
:1008900001684A68174C436A04EB43331A4301E08A
:1008A00022F400624A600168CA6A22F47002CA62D5
:1008B0000168CA6A838B104C04EB03531A43CA6263
:1008C00001688A6822F400728A6001688A6890F878
:1008D000303042EA43228A6001688A6822F48062EA
:1008E0008A6001688A68406942EA8020886010BD99
:1008F0000023014000E0FFFF0000F0FF0AF04CBAC7
:100900000AF0E0BAFFF732BDF0EE400AF5EEC00A99
:10091000F1EE10FA02DDB0EE600A7047B1EE600A47
:10092000FBE70000002803D09FED020A80ED000ADB
:100930007047000000000000002803D0B3EE060A54
:1009400080ED000A7047000070B52DED0C8B84B06F
:1009500006460C4615469FED990AF0EE408A9FED3B
:10096000970AB0EE409A9FED950AF0EE40BA9FEDDF
:10097000930AF0EE409A9FED910AB0EE40AA0EB1B4
:1009800004B11DB904B0BDEC0C8B70BD8C48FFF7F1
:10099000C9FF8C48FFF7D0FF8A48D0ED000A9FEDD1
:1009A0008A1A60EE810AB0EE600A00F025F9F0EED6
:1009B000408A28EEA80AF0EE408A8248D0ED000A6C
:1009C000B0EE001A60EE810A9FED7F1A60EE810A98
:1009D000B0EE600A00F010F9B0EE409A29EE090A74
:1009E000B0EE409ADFED790AB7EE000A00EEA80AF1
:1009F000DFED770A00EEC90ADFED760A20EE200A65
:100A0000754880ED000A6E4890ED000ADFED730A2C
:100A100080EE201AB7EE000A31EE000A20EE000A3E
:100A20006D48D0ED000A80EE801A6D4880ED001A06
:100A300094ED000AB5EEC00AF1EE10FA0DD194ED76
:100A4000010AB5EEC00AF1EE10FA06D194ED020AE1
:100A5000B5EEC00AF1EE10FA46D09FED580AB0EE9E
:100A6000408A0020019002900390D4ED000A60EECD
:100A7000A00A94ED011AD4ED011A41EE210A94ED79
:100A8000021AD4ED021A41EE210AB0EE600A00F01B
:100A9000A9F8B0EE408A94ED000A20EE080A8DED28
:100AA000010A94ED010A20EE080A8DED020A94ED88
:100AB000020A20EE080A8DED030ADDED010AF1EECF
:100AC000600AB0EE600AFFF719FFF0EE409A9DED64
:100AD000031AF0EE410A9DED021AB0EE410AFFF74B
:100AE0000FFFB0EE40AA07E09FED340AF0EE409A07
:100AF0009FED320AB0EE40AA95ED000AB5EEC00AAD
:100B0000F1EE10FA0DD195ED010AB5EEC00AF1EE45
:100B100010FA06D195ED020AB5EEC00AF1EE10FA10
:100B20003CD0B0EE690A00F067F8B0EE408AB0EE53
:100B3000690AFFF7E7FEB0EE40DAB0EE4A0A00F0CD
:100B40005BF8F0EE40AAB0EE4A0AFFF7DBFEB0EE2B
:100B500040BA28EE2A0AD5ED010A20EE200AD5ED8A
:100B6000000A0DEE200A68EE0B0A95ED021A00EE5F
:100B7000810AB0EE40CA95ED010A20EE0B0AD5EDD0
:100B8000020A0AEEE00AF0EE40CAF0EE6C0AB0EE9D
:100B90004C0AFFF7B5FEF0EE40BA03E09FED070AFE
:100BA000F0EE40BAB0EE4A1AF0EE690AB0EE6B0A07
:100BB00030460AF00FFF00BFE4E60000000000002E
:100BC000940200209802002035FA8E3CC1BFAD3B54
:100BD0009DF8C5362F7C1C419C020020506CC24AF7
:100BE000A002002010B50AF005FCB7EE001AC1EE15
:100BF000000AB0EE600A10BDFFF7F4BB2DE9F0412A
:100C00002DED028B9AB00546B0EE408A0E4617468F
:100C100098460020179018901990149015901690EF
:100C20004DB146B13FB1B8F1000F04D0B5EEC08A66
:100C3000F1EE10FA05D100201AB0BDEC028BBDE830
:100C4000F08196ED000A8DED170A96ED010A8DED03
:100C5000180A96ED020A8DED190A97ED000A8DED3E
:100C6000140A97ED010A8DED150A97ED020A8DED34
:100C7000160A17AA14A928460AF0E0FC402104A885
:100C8000FFF721FD002000900190029003900024C6
:100C900017A904A80CF05EF900BF30E004A800EB2F
:100CA000041090ED000AD5ED000A20EE200A04A8F9
:100CB00000EB0410D0ED010A95ED011A00EE810A57
:100CC00004A800EB0410D0ED020A95ED021A00EE24
:100CD000810A04A800EB0410D0ED030A95ED031A75
:100CE00000EE810A20EE080AF0EE000A80EE201ADB
:100CF000684600EB840080ED001A601CC4B2042C2E
:100D0000CCDB002410E005EB840090ED000A68467F
:100D100000EB8400D0ED000A30EE200A05EB8400E1
:100D200080ED000A601CC4B2042CECDB28460CF0F9
:100D30006FF8012080E7000001221021014801F036
:100D400043BC00000000024000221021014801F0D5
:100D50003BBC000000000240704700000122114629
:100D6000014801F031BC00000004024000220121D2
:100D7000014801F029BC00000004024030B543786E
:100D800004781B021BB2234300EE103A194CB8EE54
:100D9000C00AD4ED010A20EE200A81ED000AC378D2
:100DA00085781B021BB22B4300EE103AF8EEC00A06
:100DB00094ED010A60EE800AC1ED010A43790479DD
:100DC0001B021BB2234300EE903AF8EEE00A20EE3D
:100DD000800ADFED090A81ED020AD0F8060020F052
:100DE0007F4000EE100AB8EE400A20EE200A82EDA5
:100DF000000A30BD5002002000401C4270470BF03A
:100E000036BB0BF0B1B9000010B54278037812027E
:100E100012B21A4300EE102A124BB8EEC00AD3EDFC
:100E2000020A20EE200A81ED000AC27884781202BC
:100E300012B2224300EE102AF8EEC00A93ED020A25
:100E400060EE800AC1ED010A42790079120212B205
:100E5000024300EE902AF8EEE00A20EE800A81EDCF
:100E6000020A10BD5002002010B5FFF775FFFFF712
:100E7000C5FF0AF0F9FE08B1802402E00AF060FE26
:100E800004460BF0BDF810B144F0400010BD0BF06B
:100E900049F8204310BD00002DE9FC410546002023
:100EA00016460C4600900190FFF74EFF922000F08E
:100EB000BDF806226946122000F09AF8FFF73CFFC1
:100EC0009DF801009DF80010000200B2084300EEFA
:100ED000100A464FB8EEC00AD7ED010A20EE200AEC
:100EE00084ED000A9DF803009DF80210000200B294
:100EF000084300EE100AF8EEC00A97ED010A60EE12
:100F0000800AC4ED010A9DF805009DF80410000256
:100F100000B2084300EE900AF8EEE00A20EE800AE4
:100F200084ED020AFFF722FF08226946002000F044
:100F30005FF8FFF713FF9DF800000F2830D19DF8F0
:100F400003009DF80210000200B2084300EE100AF0
:100F5000D7ED020AB8EEC00A20EE200A85ED000A9D
:100F60009DF805009DF80410000200B2084300EE51
:100F7000100AF8EEC00A97ED020A60EE800AC5ED8D
:100F8000010A9DF807009DF80610000200B2084310
:100F900000EE900AF8EEE00A20EE800A85ED020AE3
:100FA000FFF7D2FEA22000F041F80222694622207B
:100FB00000F01EF8FFF7C0FE9DF800009DF801103C
:100FC000C00040EA5110B0F5806F01DBA0F5006071
:100FD00000EE100AB4EE001AF8EEC00AB3EE070AEB
:100FE00000EE810A86ED000ABDE8FC815002002077
:100FF00070B514460D4640F0800000F017F806E08A
:10100000552000F013F8641E05F8010BE4B2002C23
:10101000F6D170BD10B50C4640F0800000F006F827
:10102000552000F003F8207010BD000001B582B01B
:101030004FF47A700090012301AA02A9024802F03D
:10104000D1FE9DF804000EBDB80B00200278407858
:10105000D20042EA50100B4AB0F5806F108002DBDC
:10106000A0F500601080B2F90000B4EE001A00EEA6
:10107000100AF8EEC00AB3EE070A00EE810A81ED0D
:10108000000A70475002002010B50C46FFF7CEFF53
:101090002046BDE81040FFF7C9BFFEE7014800F059
:1010A00046BD0000DC090020014800F040BD000002
:1010B000040A0020124A10B5506800011ED5114BD9
:1010C000114C4FF00061586B0068A04202D90E48E5
:1010D0004C3805E00A4CB834A04203D90A485038CD
:1010E000016006E0064C5834A04201D9D16000E00E
:1010F00091601868016841F40071016010BD000042
:1011000000600240800A002058640240014800F05C
:10111000DFBF0000C41000202DE9F05FA148A24A03
:10112000A14DC06CA14EA04F0068DFF880C2DFF86F
:101130007882DFF87892DFF870A2DFF870B2DFF81B
:1011400068E29A4C483D60361837D1140CF1180CFF
:10115000A8F1300809F178090AF1300A0BF1300BD7
:10116000AEF1180E90421ED98F4A543A21E0B8428F
:101170002ED1202208E0504531D10A4604E04FF438
:10118000001201E04FF00062134276D0864A90428E
:101190004ED9A04205D0A84203D0B04201D0B842F7
:1011A0002AD1202141E0814AA832904203D97E4AC7
:1011B000583A136805E07D4A483290427C4AF8D993
:1011C0005368A042D5D0A842D3D0B042D1D0CEE708
:1011D0006045D2D04045D0D04845CED0CBE7584529
:1011E000CDD07045CBD0714A90329042C7D06E4A74
:1011F00048329042C6D1C2E7604516D0404514D06F
:10120000484512D0504510D0584509D0704507D0F8
:1012100066499031884203D063494831884202D1FF
:101220004FF4001101E04FF000615F484C3829E0B5
:101230005E4AA832904227D9A04205D0A84203D0E6
:10124000B04201D0B84201D1202119E0604517D049
:10125000404515D0484513D0504511D0584509D0C8
:10126000704507D051499031884203D04E494831EA
:10127000884203D14FF4001102E090E04FF000618A
:101280004948503801604EE0484A4832904225D9DA
:10129000A04205D0A84203D0B04201D0B84201D14B
:1012A000202118E0604516D0404514D0484512D0A2
:1012B000504510D0584509D0704507D03B49903172
:1012C000884203D038494831884202D14FF4001196
:1012D00001E04FF000613648C16024E0A04205D033
:1012E000A84203D0B04201D0B84201D1202118E079
:1012F000604516D0404514D0484512D0504510D016
:10130000584509D0704507D028499031884203D00C
:1013100025494831884202D14FF4001101E04FF0D5
:10132000006123488160234C607880070CD5607889
:1013300020F002006070607840F0040060700122CC
:1013400011461D4801F040F9A0781C4D80070CD5CE
:10135000A07820F00200A070A07840F00400A070F7
:1013600001221021284601F02FF9E07880070CD5E2
:10137000E07820F00200E070E07840F00400E070D7
:1013800001221021284601F01FF907F099FC60782E
:10139000400704D50A48016841F001010160BDE839
:1013A000F09F0000B80B002058640240106002401B
:1013B00000600240280100200004024000000240BA
:1013C000103C0140014800F083BE000004100020E2
:1013D000014800F07DBE000024110020014800F00B
:1013E00077BE0000A40F002001681823CAB2103A8B
:1013F000B2FBF3F2054B6FF30901032A9B5CC36553
:1014000000D9091D8165084670470000C0E1000849
:1014100010B5014600208B698A6A4FF0C07453B141
:10142000B3F5005F15D072B1012A0CD0022A0AD0A0
:10143000032A09D104E01AB1012A06D0022A03D1F5
:10144000C96AC90100D5012010BDC96AA142FAD0FC
:1014500010BD002AF7D0012AF2D0022AF3D0032AC5
:10146000F3D010BD7047012000F0B2BF082000F09B
:10147000AFBF102000F0ACBF202000F0A9BF704724
:1014800078B50024009490F83C20012A19D001225C
:1014900080F83C200A6807250368092A13D9DE680A
:1014A0000A3A02EB42029540AE43DE600A788B684E
:1014B0000A3A02EB420293400268D5682B43D3609C
:1014C00010E0022078BD1E6902EB42029540AE4357
:1014D0001E610A788B6802EB42029340026815692C
:1014E0002B4313614A681F25072A13D203685E6BDA
:1014F000521E02EB82029540AE435E630A8893B2AD
:101500000A79521E02EB820293400268556B2B430C
:10151000536327E003680D2A12D21E6BD21F02EB21
:1015200082029540AE431E630A8893B20A79D21FA5
:1015300002EB820293400268156B2B43136311E0A8
:10154000DE6A0D3A02EB82029540AE43DE620A8803
:1015500093B20A790D3A02EB820293400268D56A8F
:101560002B43D362164B0568144A9D4206D10D6881
:10157000122D03D1556845F48005556005689D42DC
:1015800018D10B68102B01D0112B13D1536843F4E1
:1015900000035360096810290CD10A490A4A0968F6
:1015A000B1FBF2F101EB8101490000E0491E00911D
:1015B0000029FBD180F83C40002078BD0023014089
:1015C000002001401C00002040420F000068C06C59
:1015D000704770B504004FF0000603D0206C002562
:1015E00010B107E0012070BD204600F01DF86564D1
:1015F00084F83C50206CC00610D4206C20F4885035
:1016000040F0020020642046FFF7E4F86564206C97
:1016100020F0020040F00100206400E0012684F880
:101620003C50304670BD000010B586B00446142111
:101630006846FFF748F8174B206800221649984281
:1016400009D1086840F480700860086800F4807070
:10165000059006B010BD114B9842FAD1086840F4CD
:1016600080600860086800F4806005900A481438BB
:10167000016841F0200101600068694600F0200027
:101680000590181500900320CDE90102044800F0F0
:10169000ABFEDEE70020014044380240002201405A
:1016A000001402402DE9F041044600680D468168AF
:1016B0004FF0000749050BD58068C00508D5206CA0
:1016C00040F02000206484F83C700120BDE8F081E7
:1016D00000F080FF064613E0681C11D025B100F031
:1016E00079FF801BA8420BD920680068800707D4C7
:1016F000206C40F00400206484F83C700320E5E78F
:10170000206800688007E7D521686FF01200086044
:10171000206C40F4007020642068816811F0405F04
:1017200013D1217E89B9C16A11F4700F02D080688B
:1017300040050AD4206C20F480702064206CC00422
:1017400003D4206C40F0010020640020BEE70000BC
:1017500018B50022009290F83C10012907D0012111
:1017600080F83C1001688B68DB0702D011E0022092
:1017700018BD8B6843F001038B602E492E4B09681E
:10178000B1FBF3F101EB410100E0491E009100299A
:10179000FBD101688B68DB0742D0036C40F2016427
:1017A000A34343F4807303644B685B0505D5036C66
:1017B00023F4005343F480530364036CDB0404D527
:1017C000436C23F00603436400E0426480F83C204D
:1017D0001A4A6FF022030B6051680068CA06184964
:1017E00006D0884224D1816811F0405F13D01FE0F9
:1017F0008842F8D0134A904203D1D1F80423D2068C
:10180000F1D0114A904213D1D1F8041301F01F0115
:101810001029E8D30CE0816841F08041816007E045
:10182000016C41F010010164416C41F0010141641F
:10183000002018BD1C00002040420F000023014082
:1018400000200140002101400022014090F82020AA
:10185000012A07D0022A05D0416A41F48021416261
:1018600001207047006842690A43426100207047C6
:10187000F0B590F820500468A468012D05D0022D21
:1018800003D0416A41F4802153E014F0406F01D14C
:10189000E5004BD5C4F30164022C03D9416A41F43D
:1018A000000146E00125A5401D608B684FF4C0751E
:1018B0009BB1CE6833434E6843EAC603066805EB26
:1018C0000417F3514FF4C273076803EB04130E6956
:1018D000FE50097D012905D009E00E88CB6843EA56
:1018E0004653EBE70168CE5846F48076CE50117926
:1018F000D2F805304FF4C67641EA0323016806EBBF
:1019000004168B511178D2F801204FF4C47341EAC8
:101910000221026803EB0413D150006805EB0411A7
:10192000425842F0010242500020F0BD416A41F4A9
:10193000001141620120F0BD10B590F82020012A6D
:1019400007D0022A05D0416A41F48021416201207A
:1019500010BD3B48D0F8002242F00102C0F800223E
:10196000D0F8002222F47C52C0F80022D0F80022E5
:101970004B6A42EA0322C0F800220A7D02F01F03EC
:1019800001229A40D0F81C329343C0F81C32CB6934
:10199000B3B9D0F80C329343C0F80C328C894B6841
:1019A00064F31F434C6900EBC404C4F840320C8953
:1019B0000B6864F31F434C6900EBC404C4F8443261
:1019C000CB69012B16D1D0F80C321343C0F80C327E
:1019D0000C884B6864F31F434C6900EBC404C4F8E3
:1019E00040320C89CB6864F31F434C6900EBC4049C
:1019F000C4F844328B69002BD0F804320ED0134364
:101A0000C0F804320B69002BD0F8143208D013430D
:101A1000C0F81432096A012904D008E09343EFE7C3
:101A20009343F5E7D0F81C121143C0F81C12D0F80C
:101A3000001221F00101C0F80012002010BD0000CA
:101A400000640040704730B590F82040012C05D06C
:101A5000022C03D0416A41F480215DE00468002932
:101A600055D02469A40754D04FF4D874056804EB0A
:101A700001142D5915F00405956005682D594ED0B7
:101A8000ED08556005682C5904F00204D4604FF449
:101A9000DA74056804EB01142D5905F00F05156182
:101AA00005682D59C5F30725956105682C59240C47
:101AB00054614FF4DC72046802EB0112A4581C70EC
:101AC0000468A458240A5C700468A458240C9C7010
:101AD0000468A258120EDA704FF4DE72046802EB4A
:101AE0000112A4581C710468A458240A5C7104688B
:101AF000A458240C9C710468A258120EDA71006874
:101B000081B1016941F020010161002030BDE4682C
:101B1000A8E7416A41F400114162012030BD6D0D1A
:101B20001560AFE7C16841F02001C160EDE72DE924
:101B3000F05F0546006800244669D0F80490876885
:101B4000D0F80CB0D0F810A0D0F81880F10748D029
:101B5000F90714D001218160B80703D5284600F0A9
:101B60008CFA0CE0780702D54FF4006407E03807E0
:101B700002D54FF4805402E0284600F07DFAF805C3
:101B800016D529684FF480708860B80503D52846BB
:101B900000F075FA0CE0780502D544F4005407E033
:101BA000380502D544F4804402E0284600F066FA85
:101BB000F80316D529684FF480308860B80303D540
:101BC000284600F05EFA0CE0780302D544F40044A5
:101BD00007E0380302D544F4803402E0284600F0E0
:101BE0004FFA300707D55FEACB6004D5296810208B
:101BF00044F40074C86070074FF0080707D55FEA27
:101C00000B7004D52868C760284600F097F9B00724
:101C100006D52868C068800702D0284600F090F9F1
:101C2000700607D55FEACA6004D52968102044F41D
:101C300080640861B00607D55FEA0A7004D5286899
:101C40000761284600F0EAF9F00606D52868006921
:101C5000800702D0284600F0E2F9B00308D55FEA19
:101C6000C96005D5296810204860284600F0D8F9D9
:101C7000F00307D55FEA097004D528684760284655
:101C800000F000FA300446D55FEA497040D5F0050F
:101C900004D55FEAC87001D044F00104B00504D552
:101CA0005FEA887001D544F00204700504D55FEA4C
:101CB000487001D544F00404300529D518F0700FA0
:101CC00026D008F07000402815D006DC102809D076
:101CD00020280AD0302816D10AE050280ED06028DB
:101CE00011D10EE044F008040DE044F010040AE0C5
:101CF00044F0200407E044F0400404E044F0800491
:101D000001E044F480742868816921F070018161E8
:101D1000296804204860002C05D0686A2043686266
:101D20002846FFF78FFEBDE8F09F70B5040003D092
:101D300094F8200010B104E0012070BD204600F0AE
:101D400081F82068016841F00101016000F042FC67
:101D50000546052604E000F03DFC401B0A2811D88A
:101D600020684068C007F6D02068016821F00201B1
:101D7000016000F02FFC05460BE000F02BFC401B3F
:101D80000A2806D9606A40F40030606284F8206056
:101D9000D2E7206840688007EFD4207E01282068C1
:101DA00001683DD021F080010160607E012820683B
:101DB000016838D021F040010160A07E0128206830
:101DC000016833D021F020010160E07E0128206805
:101DD00001682ED041F010010160207F01282068A9
:101DE000016829D021F008010160607F0128206886
:101DF000016824D021F004010160D4E90201084304
:101E0000D4E90412114308436168491E084321685C
:101E1000C86100206062012084F82000002070BDAD
:101E200041F08001C0E741F04001C5E741F02001E9
:101E3000CAE721F01001CFE741F00801D4E741F0F3
:101E40000401D9E7F0B587B0044614216846FEF7CF
:101E50003AFC3549354ADFF8CCE00868D4F800C0D0
:101E6000324B03240225092610320027401CF4457A
:101E700021D10860012807D1106840F0007010607F
:101E8000106800F000700590186840F008001860B5
:101E900018688DE8B00000F00800CDE904606946DC
:101EA0000394234800F0A0FA00220621142000F039
:101EB00007FF142031E0DFF87CE0F4452FD1D2F8A1
:101EC00000C04CF0806CC2F800C0D2F800C00128FD
:101ED0000CF0806CCDF814C0086007D1106840F099
:101EE00000701060106800F000700590186840F0F5
:101EF000020018601868694600F002000590602032
:101F00008DE8A100CDE903460B4800F06DFA0022F0
:101F10000621402000F0D4FE402000F0C3FE07B0B0
:101F2000F0BD000000640040040000203038024092
:101F3000000C0240006800400004024070470000AE
:101F400010B53249324C884222D1324B2246002110
:101F5000FFF779FD2068A0F5007005380AD0FE284B
:101F600010D0FF2851D12B49A4F1840007F001FAC9
:101F7000132046E02648274A0021843807F0CAF992
:101F800009203EE022482349843807F0E3F9EFE7CF
:101F90002149884239D11F4B1D4A0021FFF753FDCB
:101FA0002068A0F2012006282FD2DFE800F0030B02
:101FB0001B232E131648174A0021843807F098F97E
:101FC00001201EE01248134A0121843807F090F9DD
:101FD000022016E00E480F4A0121843807F09AF9D2
:101FE0000A200EE00A480B4A0221843807F080F9E3
:101FF000032006E00648074A0321843807F078F9F1
:102000000420BDE8104006F011BC10BDDC09002022
:10201000F07E00201C010020040A00207047704759
:10202000704770B5044690F82000012804D0606A1B
:1020300040F40020606217E0022084F8200020684D
:10204000016821F00101016000F0C4FA05460DE0CD
:1020500000F0C0FA401B0A2808D9606A40F400303A
:102060006062052084F82000012070BD206840686F
:10207000C007EDD1606270BD704770477047704710
:1020800070477047704710B5040002D0607910B1F6
:1020900006E0012010BD00202071204600F004F869
:1020A00001206071002010BD08B500680649884213
:1020B00008D10648016841F480510160006800F4CD
:1020C0008050009008BD00000030024030380240CF
:1020D0002DE9F84304464FF00009CDF8009063481D
:1020E0004FF41651A56D0068B0FBF1F72E6894F817
:1020F0005C20082101FA02F030420FD0206802680B
:1021000052070BD5026822F00402026094F85C00CA
:102110008140A960606D40F00100606594F85C103A
:102120004FF0010808FA01F0304208D021684969EF
:10213000090604D5A860606D40F00200606594F85F
:102140005C1004208840304208D021680968890763
:1021500004D5A860606D40F00400606594F85C10E0
:1021600010208840304218D021680968090714D52A
:10217000A86020680168490304D50068000308D5F9
:10218000A16C07E00168C90503D4016821F00801CA
:102190000160216C09B12046884794F85C1020202A
:1021A0008840304231D021680968C9062DD5A86021
:1021B00094F8350005282068016806D0490347D502
:1021C000006800031DD4616C1CE021F01601016061
:1021D0002068416921F080014161206C08B9A06C40
:1021E00020B12068016821F00801016094F85C10BA
:1021F0003F208840A86084F8358084F83490216DB1
:102200001FE0E16B09B120468847606D00282BD0A4
:10221000606DC00714D0052084F83500206801687F
:1022200021F0010101600098401C0090B84203D8E1
:1022300020680068C007F6D184F8358084F83490AF
:10224000E16C002910D001B02046BDE8F0430847FA
:102250000168C905D5D4016821F01001016084F836
:10226000358084F83490CCE7BDE8F8831C0000206A
:102270002DE9F041044600F0ADF905465CB10220BD
:1022800084F83500002684F834602068016821F065
:10229000010101600DE00120BDE8F08100F09AF934
:1022A000401B052805D920206065032084F83500EF
:1022B000F2E720680068C007F0D121680A6820486A
:1022C0000240D4E901031843D4E903352B431843F2
:1022D00063691843A3691843E3691843236A1843E1
:1022E0001043626A042A03D1D4E90B231A43104332
:1022F000086020684069656A20F0070128460D43A0
:10230000012704280CD1A06A0543E06A40B12046A9
:10231000FFF77EF820B14020606584F83570BAE799
:10232000206845612046FFF75FF894F85C203F2164
:1023300091408160666584F835700020ACE700004C
:102340003F8010F010B5204C10281AD0202824D03F
:10235000082830D0012813D10BF05AFD01280FD0E6
:1023600004F1100160690BF083F82069002807D0A0
:1023700016494FF080500860BFF34F8FBFF36F8F47
:1023800010BD0C2006F052FAA07840F00100A070B9
:10239000E07840F00100E07006E00B2006F046FA1D
:1023A000607840F00100607060790028E8D0BDE8F6
:1023B000104006F085BC0D2006F038FA207940F078
:1023C0000100207110BD00002801002004ED00E094
:1023D000044910B50A68024202D00860FFF7B2FF54
:1023E00010BD0000143C01402DE9F84FDFF89C912E
:1023F000002209F1040A0AF1040B03274FF00F0C25
:102400000BF1040E01250B6895402B40AB426ED1B9
:102410000C7904F00304012C01D0022C15D186683C
:10242000540007FA04F826EA0806D1F80C8008FAE6
:1024300004F848EA0608C0F808804468AC430D79FF
:10244000C5F300159540254345600C79E443A40786
:1024500008D0C568540007FA04F6B5438E68A64054
:102460002E43C6600C7904F00304022C11D1D40869
:1024700000EB8406356A5407E40E0CFA04F825EAEA
:102480000805D1F8108008FA04F848EA0508C6F8EB
:1024900020800568540007FA04F6B5430E7906F06B
:1024A0000306A6402E4306604C6814F4403F66D0F5
:1024B000374C256845F480452560246822F00305E3
:1024C00004F480440094334C05EB0408D8F8085811
:1024D0009407260F0CFA06F4A5432F4CA04201D115
:1024E000002424E02D4CA04202D101241FE046E04C
:1024F0002B4CA04201D1022419E02A4CA04201D168
:10250000032414E0284CA04201D104240FE0274CFE
:10251000A04201D105240AE0254CA04201D10624A5
:1025200005E0244CA04201D1072400E00824B44077
:102530002C43C8F80848D9F800404D464E689C43E3
:10254000F60300D51C432C60DAF8004055464E686F
:102550009C43B60300D51C432C60DBF800405D466D
:102560004E689C43F60200D51C432C60DEF8004008
:1025700075464E689C43B60200D51C432C60521C25
:10258000102AFFF43FAFBDE8F88F0000003C014087
:102590004438024000300140000002400004024084
:1025A00000080240000C02400010024000140240EB
:1025B00000180240001C0240426921EA02030A405E
:1025C00043EA0241816170470AB1816170470904A1
:1025D000FBE7000001488068704700001000002001
:1025E00070B5040025D094F83D00002520B984F88A
:1025F0003C50204600F04CFA242084F83D0020682E
:10260000016821F0010101602068016841F4004186
:1026100001602068016821F40041016001F028F8A0
:102620004D4B6168994201D84C4900E04C498842C1
:1026300001D2012070BD4B492268B0FBF1F1566810
:1026400026F03F060E43566062689A4206D94FF460
:10265000967251434FF47A72B1FBF2F12268491C31
:10266000166A26F03F06314311626168994210D81C
:102670004900401EB0FBF1F2521CC2F30B02042AC7
:1026800001D2042022E0B0FBF1F0401CC0F30B00AB
:102690001CE0A268F2B301EBC10303EB0116431E79
:1026A000B3FBF6F35B1C43F480431B0549D092B3A4
:1026B00001EBC10202EB0111401EB0FBF1F0401C26
:1026C000C0F30B0040F4804040F400402168CA6928
:1026D0004CF6FF739A431043C861D4E907100143D5
:1026E0002068026822F0C00211430160D4E90301AE
:1026F00001432068826848F2FF339A4311438160A6
:10270000D4E9051001432068C26822F0FF0211439A
:10271000C16001E00EE016E02068016841F00101AF
:1027200001602564202084F83D00256384F83E5034
:10273000002070BD01EB4106431EB3FBF6F35B1CAA
:10274000B3E70120C2E701EB4101401EB0FBF1F00D
:10275000401CC0F30B00B7E7A086010080841E0078
:1027600000093D0040420F002DE9FF4F83B09A461B
:10277000DDE9119793460446DDF84080FFF72AFF14
:10278000054694F83D00202870D119230122714993
:102790002046009502F050FB0028F5D194F83C004B
:1027A000012863D0012084F83C0020680168C90733
:1027B00003D1016841F0010101602068016821F442
:1027C00000610160222084F83D00402084F83E0032
:1027D00000262664C4F82480A4F82A90608D208501
:1027E0005D48E062CDE9007553465A46204604999B
:1027F00002F02AFA00287CD1208DD0B1012821D006
:102800000228206824D0416980690090208D032827
:1028100069D801282BD0514902283B464FF00002CD
:10282000009559D08846204602F006FB002860D16A
:102830003CE02068416981690091016841F40071C0
:10284000016077E02068016821F480610160F0E7B1
:10285000016821F4806101602068016841F4006131
:102860000160206841698069009063E06FE02A465A
:102870003946204602F060FB98BB20680069616A17
:1028800008704EE02068016841F400710160206822
:102890000069616A0870606A401C6062218D491E8F
:1028A0002185618D491E6185216838E020680168B5
:1028B00021F48061016020680069616A0870606AC3
:1028C000401C6062208D401E2085608D401E60850A
:1028D0003B46002241460095204602F0ADFA00B981
:1028E000D0E706E0FFE72A463946204602F024FBFF
:1028F00018B1012007B0BDE8F08F20680069616A57
:102900000870606A401C6062218D491E2185618DBE
:10291000491E618521684A69D24352070AD4096970
:102920000170606A401C6062208D401E2085608DB1
:10293000401E6085208D00287FF468AF202084F839
:102940003D0084F83E6084F83C600020D2E702201D
:10295000D0E70000020010000000FFFF04000100AB
:102960002DE9FF4F83B09A46DDE91197934604465F
:10297000DDF84080FFF72EFE054694F83D00202844
:102980007FD11923012240492046009502F054FAD4
:10299000002876D194F83C00012872D0012084F8F8
:1029A0003C0020680168C90703D1016841F00101BA
:1029B00001602068016821F400610160212084F831
:1029C0003D00402084F83E0000262664C4F82480A0
:1029D000A4F82A90608D20852C48E062CDE900752E
:1029E00053465A462046049902F0ACF970B930E0DB
:1029F0002A463946204602F0D4FA58B1206C042801
:102A000004D12068016841F400710160012007B021
:102A1000BDE8F08F606A216800780861626A521C24
:102A20006262208D401E80B22085618D491E6185C5
:102A300021684B69DB435B070BD468B110780861F0
:102A4000606A401C6062208D401E2085608D401EA3
:102A50006085208D0028CBD12A463946204602F0D9
:102A6000C5F90028CAD154F83D0B016841F4007142
:102A70000160202004F81E09E67766770020C6E78B
:102A8000FFE70220C3E70000020010000000FFFF84
:102A90002DE9F04387B0054614216846FDF713FE83
:102AA000484E474B29680024464812220327103617
:102AB0004FF001084FF00409994218D1016841F024
:102AC000020101600068694600F0020005903802CA
:102AD0008DE80501CDE903793B48FFF785FC3068B7
:102AE00040F400103060306800F4001065E0374BAF
:102AF000994234D1016841F0200101600068CDE9BC
:102B0000007200F02000CDE90490CDE9028769460B
:102B10002F48FFF769FC306840F48000306030686F
:102B20002D4E00F4800005902A4830604FF0606020
:102B300070604020C6E902040001C6E90404C00137
:102B4000B461C6E9074030467462FFF791FB08B1F3
:102B5000FEF795FC6E63B56307B0BDE8F0831F4BCD
:102B60009942F9D1016841F004010160016801F066
:102B700004010591016841F00101016000681446FB
:102B800000F00100059058158DE81101CDE9037999
:102B900069461348FFF728FC4FF480708DE8110157
:102BA000CDE9037969460F48FFF71EFC306840F411
:102BB00000003060306800F400000590CCE70000B1
:102BC00000540040303802400004024000580040E9
:102BD00000140240B8600240280B0020005C004056
:102BE0000008024000000240024881680278114457
:102BF00081607047100000200B4810B5016841F457
:102C000000710160016841F480610160016841F474
:102C100080710160032000F073F80F2000F006F8C7
:102C200000F024F8002010BD003C024070B50D4DAE
:102C300004464FF47A712878B1FBF0F00A4909682C
:102C4000B1FBF0F001F0BBF948B9102C07D200221B
:102C50002146501E00F034F800206C6070BD012049
:102C600070BD0000100000201C0000200C4882B045
:102C7000016841F480410160006800F480400090E8
:102C80000748001F016841F0805101600068002280
:102C900000F0805000900F21901E02B000F010B89C
:102CA00044380240002809DB00F01F020121914056
:102CB0004009800000F1E020C0F8001170470000DA
:102CC000F0B40E4B1B68C3F30223C3F10704042CBA
:102CD00000D904241D1D072D01D2002300E0DB1EB6
:102CE000012606FA04F56D1E0D409D409E40761E9D
:102CF000164045EA0601F0BC08F03DB80CED00E0D6
:102D0000064A00F0070110684FF6FF03184040EA3A
:102D10000120034908431060704700000CED00E0FB
:102D20000000FA057047D0F8040404F05DBFC1EB61
:102D3000C10200EB8202D0F80404926C04F0CABE17
:102D4000C1EBC10200EB8202D0F80404D2F80822E1
:102D500004F014BFD0F8040404F048BF70B5044672
:102D600001F00F006268904201D9012070BD0B068E
:102D700001F00F01C1EBC10104EB81014FF0010231
:102D80004FF0000503D581F83D203C3103E081F888
:102D9000FD5101F5FE718D70087094F8BC03012897
:102DA00008D084F8BC23206805F0EAFA84F8BC5304
:102DB000002070BD022070BD2DE9F04104460F06D1
:102DC00001F00F00C0EBC00104EB81014FF00106E0
:102DD0004FF0000503D581F83D603C3103E081F8F8
:102DE000FD5101F5FE7108708A60CB704A7802B11E
:102DF000C880022B00D10D7194F8BC03012809D0C2
:102E000084F8BC63206805F0B5F9284684F8BC5303
:102E1000BDE8F0810220FBE770B50D4601F00F041C
:102E2000C4EBC40100EB8101C1F81032C1F80822E3
:102E30000023C1F8143281F8FD3181F8FC410369A7
:102E400001F5FE71012B00D10A612A07027C00689E
:102E500003D005F0EDFA002070BD05F0D9F9FAE7CE
:102E600070B504460D4601F00F006168884201D933
:102E7000012070BD29064FF000064FF0010207D572
:102E8000C0EBC00104EB810181F83D203C3107E03B
:102E9000C5EBC50104EB810181F8FD6101F5FE710F
:102EA0008A70087094F8BC03012807D084F8BC230A
:102EB000206805F091FA280702D007E0022070BDD3
:102EC000217C04F57172206805F02EFA84F8BC6349
:102ED000002070BD70B50D4601F00F04C4EBC401B5
:102EE00000EB81010B658A6400234B65012381F8A7
:102EF0003D3001F83C4F0369012B00D10A612A07DC
:102F0000027C006803D005F093FA002070BD05F044
:102F10007FF9FAE72DE9F84F05680446284605F0E1
:102F20009CFB00287ED1206805F0C3FB002879D0E7
:102F3000206805F0BEFB800704D52068416901F0D8
:102F400002014161206805F0B4FBC10604F571700F
:102F5000009034D52068816921F0100181612F6AC9
:102F600007F00F00C0EBC00004EB8006C7F343403E
:102F700006F5FE76022802D0062811D01AE047F6A0
:102F8000F070074216D0C7F30A1217462846F168B8
:102F900005F093FBF0683844F060B069384408E00D
:102FA00008222846009905F088FBB069C7F30A118A
:102FB0000844B0612068816941F010018161206896
:102FC00005F077FB00034FF0010B5AD5002620686F
:102FD00005F04EFB8046DFF864A34FE05FEAC8705F
:102FE00049D0F1B2206805F05CFB0746C00707D066
:102FF00005EB4611C1F808BB3146204602F050FDF2
:10300000380722D505EB46110820C1F8080B2068C7
:10301000D0F8409000EB4610D0F8081BD14507D9F6
:10302000090400E087E103D54FF40041C0F8081B14
:10303000204600F0BFF9D14507D92069012804D105
:1030400020680121009A05F06FF9F80604D505EB18
:1030500046111020C1F8080BB80604D505EB46113F
:103060002020C1F8080BB80405D505EB46114FF434
:103070000050C1F8080B4FEA5808761CB8F1000F51
:10308000ACD1206805F015FB40034FF000095BD57B
:10309000206805F0E6FA8046002652E05FEAC87034
:1030A0004CD0F1B2206805F0EAFA0746C00723D0F9
:1030B00006F00F010BFA01F0D5F834188143C5F87A
:1030C000341805EB4610C0F808B9206901280FD163
:1030D000C6EBC60004EB8000D0E9112111448164E5
:1030E00036B9206D20B920680121009A05F01CF93D
:1030F000F1B22046FFF71BFE380704D505EB461159
:103100000820C1F80809F80604D505EB461110207F
:10311000C1F80809780604D505EB46114020C1F82E
:103120000809B80704D505EB46110220C1F80809C3
:10313000380603D53146204602F018FD4FEA5808FC
:10314000761CB8F1000FA9D1206805F0B2FA00286A
:1031500011DAD5F8040820F00100C5F8040894F845
:10316000F403012829D0204600F008F920684169BD
:1031700001F000414161206805F09BFA00050BD584
:10318000D5F80808C00702D0204600F01BF92068D7
:10319000416901F400614161206805F08AFAC004C8
:1031A00068D5D5F8040820F00100C5F804081021FE
:1031B000206805F02FFA002127E084F8F49300211D
:1031C0002046FFF7AFFDD1E705EB41104FF67F3208
:1031D000C0F80829D0F8003923F40013C0F80039EA
:1031E000D0F8003943F00063C0F80039C0F8082B6C
:1031F000D0F8002B22F40012C0F8002BD0F8002BDE
:1032000042F00062C0F8002B491C60688842DBD89D
:10321000D5F81C0840F00110C5F81C08206B60B1FF
:10322000D5F8840840F00B00C5F88408D5F84408A8
:1032300040F00B00C5F844080CE0D5F8140842F241
:103240002B010843C5F81408D5F8100840F00B000E
:10325000C5F81008D5F8000820F4FE60C5F800088D
:10326000217C2068009A05F05FF82068416901F42C
:1032700080514161206805F01CFA800415D5206852
:1032800004F0B8FF206805F0DBF9E06000F0EAF92F
:103290000146227B206805F041FA204600F058F8EC
:1032A0002068416901F400514161206805F001FA8C
:1032B000000707D5204600F065F82068416901F055
:1032C00008014161206805F0F4F9C00208D5002129
:1032D000204600F035F82068416901F48011416111
:1032E000206805F0E6F9800208D50021204600F0AC
:1032F0002BF82068416901F400114161206805F054
:10330000D8F9400007D52046FFF70DFD2068416938
:1033100001F080414161206805F0CBF940070AD5F2
:1033200020684568680702D52046FFF713FD20682E
:10333000416829434160BDE8F88F00000A30544FCE
:10334000D0F8040404F06EBCD0F8040404F07ABC95
:1033500070B50446C068012570B1022801D0FEF79F
:103360008EF82946D4F8040404F0D8FCD4F80404F8
:10337000BDE8704004F08BBC0025F2E7D0F80404EF
:1033800004F0B2BCD0F8040404F0B8BC10B5044694
:1033900090F8BC0301280BD0012084F8BC0384F80A
:1033A0003810206805F0A8F9002084F8BC0310BD8F
:1033B000022010BDD0F8042400F57171104604F00D
:1033C000B9BC000010B50446D0F8040404F0EBFCCE
:1033D0002068D0F8001E41F00101C0F8001E206AEC
:1033E000002804D00248016841F00601016010BDC8
:1033F00010ED00E02DE9F843044600684FF00109A4
:10340000C1074FF0000501D1400726D5DFF80C8138
:10341000C8F86850FFF7DEF80646414F04E0FFF7B2
:10342000D9F8801B022857D838680001F7D46068A3
:10343000217A800140EA0170394984310860C8F876
:103440006890FFF7C7F8064604E0FFF7C3F8801B53
:10345000022841D838680001F7D52078800752D576
:103460002F484030016841F08051016000682D4FC5
:1034700000F080500090386840F480703860FFF7AA
:10348000A9F8064604E0FFF7A5F8801B022823D818
:103490003868C005F7D5224E7036306810F4407099
:1034A00020D0A18901F4407181421BD030681E49AF
:1034B00020F44070C1F800900D6030603068C007A3
:1034C00010D0FFF787F8054641F2883707E0FFF78D
:1034D00081F8401BB84202D90320BDE8F883306868
:1034E0008007F4D5E0680E49C0F301220831032AB1
:1034F0000BD0086820F4F81008603068A189C1F387
:103500000B01084330600020E7E70A68074B22F40C
:10351000F812184002430A60EFE70000000047423B
:103520000038024000700040400E4742FFFCFF0F91
:103530002DE9F0470D46040065D0DFF81491D9F865
:103540000000EFB200F00700A84207D289F800702F
:10355000D9F8000000F00700A84254D120683D4E81
:10356000810712D5400703D5306840F4E050306041
:103570002078000703D5306840F460403060306840
:10358000A16820F0F000084330602078C0072DD0FB
:10359000304960680839012812D0022813D0032866
:1035A00011D00968890700292DDA316821F003015B
:1035B00001433160FFF70EF8804641F2883A0EE091
:1035C00009688903EFE709688901ECE7FFF702F86A
:1035D000A0EB0801514502D90320BDE8F08730680F
:1035E000616800F00C00B0EB810FEFD1D9F800104A
:1035F000484601F00701A94207D90770006800F0AA
:103600000700A84201D00120E7E72078400705D550
:103610003068E16820F4E05008433060207800070B
:1036200006D53068216920F4604040EAC10030606E
:1036300000F03EF83168084AC1F30311515CC840FC
:103640000649086006480068FFF7F0FA0020C4E762
:10365000003C024008380240C8E100081C0000207D
:103660001400002001480068704700001C00002082
:103670000448054900680968044AC1F38221515C85
:10368000C84070471C00002008380240D8E10008FC
:103690000448054900680968044AC1F34231515C95
:1036A000C84070471C00002008380240D8E10008DC
:1036B000154810B5006810F00C01144813D0144BD5
:1036C00004290FD008290ED10F4C241F216801F0C6
:1036D0003F022168490207D52068C0F38810A0FB8B
:1036E000030106E0184610BD2168C1F38811A1FB53
:1036F00000010023FCF7B0FE2168C1F30141491C21
:103700004900B0FBF1F010BD083802400024F4007D
:10371000001BB7002DE9F84F040075D02078DFF8C2
:1037200038A3C007AAF1040548D00AF104000168D3
:10373000C1F38101012908D00068C0F3810002288B
:103740000AD1DAF80000400206D52868800335D592
:1037500060680028E1D031E06068B0F5803F10D0AB
:10376000B0F5A02F286810D020F480302860286899
:1037700020F4802028606068A0B1FEF72BFF064689
:103780000CE0286840F48030F4E740F480202860A2
:10379000F7E7FEF71FFF801B642871D828688003B5
:1037A000F7D50BE0FEF716FF064604E0FEF712FF22
:1037B000801B6428F1D828688003F7D42078DFF8CC
:1037C0009C9280074FF0000B3DD5A348001D016877
:1037D00011F00C0F08D00068C0F3810002280AD154
:1037E000DAF80000400206D42868800715D5E068A2
:1037F000012809D111E0E068B8B10120C9F8000042
:10380000FEF7E8FE064605E022E1FEF7E3FE801B38
:103810000228C2D828688007F7D52868216920F0D7
:10382000F80040EAC10028600DE0C9F800B0FEF7DA
:10383000D1FE064604E0FEF7CDFE801B02281FD80D
:1038400028688007F7D42078000722D5824F844863
:103850006169703771B101210160FEF7BBFE064658
:1038600004E0FEF7B7FE801B022809D838688007FD
:10387000F7D50EE0C0F800B0FEF7ACFE064605E056
:1038800082E0FEF7A7FE801B02287DD838688007FB
:10389000F7D42078400765D56F484FF000083C30DA
:1038A0000068C0000BD46C483C30016841F0805186
:1038B000016000684FF0010800F080500090694FEF
:1038C0003868C0050FD4386840F480703860FEF75F
:1038D00081FE064604E0FEF77DFE801B022853D8D9
:1038E0003868C005F7D55C4FA0686C3701280FD049
:1038F0000528386810D020F001003860386820F0C2
:1039000004003860A068B0B1FEF764FE06460EE021
:10391000386840F00100F4E740F004003860F7E751
:10392000FEF758FE811B41F28830814263D8386827
:103930008007F5D50DE0FEF74DFE064606E0FEF7E2
:1039400049FE811B41F28830814254D83868800793
:10395000F5D4B8F1000F05D03F483C30016821F0A4
:1039600080510160A069B8B33B49091D0968C1F3E2
:103970008101022946D00228584606D0C9F86000C5
:10398000FEF728FE044639E035E04F46C9F86000EE
:10399000FEF720FE064604E0FEF71CFE801B022810
:1039A00029D828688001F7D4D4E907010843A16A1F
:1039B0002D4A490802EB0141626A41EA821108433B
:1039C00094F82C1040EA0161CAF800100120386612
:1039D000FEF700FE044605E03CE0FEF7FBFD001BA1
:1039E000022808D828688001F7D533E0FEF7F2FDF9
:1039F000001B022802D90320BDE8F88F2868800147
:103A0000F4D427E00128F7D0DAF80000E26900F4E6
:103A1000800191421CD1226A00F03F01914217D1EE
:103A200047F6C071626A0140B1EB821F10D1A26AF1
:103A30004FF0FF3300F4403103EB5202B1EB024F81
:103A400006D194F82C1000F07060B0EB016F01D03B
:103A50000120D1E70020CFE70438024000004742B0
:103A6000800E4742007000400000FFFF70B5040068
:103A700003D06079002510B105E0012070BD2571EB
:103A8000204600F00DF8022060712068016841F0C6
:103A90000401016001206071A560002070BD00007C
:103AA00008B500680649884208D10648016841F017
:103AB00040010160006800F04000009008BD000077
:103AC000000806503438024070B5040002D0607F10
:103AD00010B106E0012070BD00202077204600F0E4
:103AE00049F8022060772168CA2048622168532083
:103AF0004862204602F0DEF8FF25042618BB206845
:103B000081681B4A114081602068816862681143A6
:103B1000D4E904231A43114381602168E0680861F5
:103B200020680169228941EA024101612068C16877
:103B300021F08001C16020688068800607D420469B
:103B400000F036F818B1206845626677C2E7206851
:103B5000016C21F4802101642068016CA269114389
:103B600001642068456201206077002070BD00007C
:103B7000BFFF8FFF1FB500210091019102910391BA
:103B80000068084988420CD1022000900648039042
:103B90006846FFF72FFC08B1FDF771FC03490120CF
:103BA00008601FBD0028004000031E003C0E474275
:103BB00070B505460068C16821F0A001C160FEF73C
:103BC00009FD04464FF47A7606E0FEF703FD001B7C
:103BD000B04201D9032070BD2868C0688006F4D5C2
:103BE000002070BD70B5040009D0606A002540B1A6
:103BF00025616561A56294F8510040B10CE0012097
:103C000070BD6068B0F5827FF4D0E561F2E784F8BA
:103C10005050204600F044F8022084F851002068FB
:103C2000016821F040010160A088218900F48270C0
:103C300001F404410843A18901F400610843217C97
:103C400001F002010843217D01F001010843218BAD
:103C500001F400710843217F01F03801084394F812
:103C6000201001F080010843218D01F40051084328
:103C700021680860A069042101EA104094F824102A
:103C800001F010010843216848602068C16921F4EF
:103C90000061C1616565012084F85100002070BD9C
:103CA0002DE9F04786B0044614216846FCF70BFD69
:103CB00045492068454A022601270323DFF8108181
:103CC00000254FF0050C88425ED140481430016851
:103CD00041F480510160006800F480500590106844
:103CE00040F002001060106800F0020005901068BB
:103CF00040F0010010601068994600F00100059046
:103D00001820E2468DE8C10669464046FEF76CFB86
:103D100080208DE8C10669462E48FEF765FB2F4ED0
:103D20002D484FF0C0673060C6E901754FF48068D8
:103D3000C6E9035875617812B561C6E90750304687
:103D40007562FEF795FA08B1FDF799FBE664B46376
:103D5000224E214860361830E6E802074020A6E8E7
:103D60002101C00246F81459B561C6E907501B4845
:103D700075626030FEF77CFA08B1FDF780FBA6643F
:103D8000B46306B0BDE8F08715498842F9D10F4801
:103D90001030016841F480410160006800F4804007
:103DA0000590106840F0020010601068694600F04D
:103DB000020005904FF460408DE8C100CDE9033C5E
:103DC0004046FEF711FBDCE700300140303802408E
:103DD000000402400000024040640240680C0020E1
:103DE000003800402DE9F84F044690F850000125B6
:103DF0000A9E1F4692468B464FF0000801280ED0BF
:103E0000012084F85000FEF7E5FB814694F851004C
:103E1000616801280CD0B1F5827F07D102E0022051
:103E2000BDE8F88FA16809B9042801D00220B6E0E6
:103E3000BBF1000F27D0BAF1000F24D01FB394F8C4
:103E40005100042802D0052084F85100002060654C
:103E5000C4F838A0E787A787C4F830B0E786A786FC
:103E60002064606420680168490603D4016841F059
:103E700040010160E068B0F5006F606805D0E8B30C
:103E8000012F43D079E0012089E008B1012F34D11E
:103E9000206B21680088C860206B801C2063E08E46
:103EA000401EE08629E02068816889070DD5E18EF3
:103EB00059B1012D09D1216B0988C160206B801C8B
:103EC0002063E08E401EE086002520688168C907D7
:103ED0000BD0E18F49B1C068A16B0880A06B801C3A
:103EE000A063E08F401EE0870125FEF773FBA0EB87
:103EF0000900B04201D3701C50D100E006E0E08E12
:103F00000028D0D1E08F0028CDD13CE0206B216883
:103F100000780873206B401C2063E08E401EE08612
:103F20002BE02068816889070DD5E18E59B1012DFC
:103F300009D1216B09780173206B401C2063E08E4E
:103F4000401EE086002520688168C9070BD0E18FFC
:103F500049B1C068A16B0870A06B401CA063E08FE2
:103F6000401EE0870125FEF735FBA0EB0900B042BB
:103F700002D3701C01D011E086B1E08E0028D0D1B0
:103F8000E08F0028CDD14A463146204603F068F83C
:103F900038B120204FF00108606508E0032080461A
:103FA00005E0A06818B92068C16880680090012009
:103FB00084F85100002084F85000404630E710B5E6
:103FC000401EB0F1807F01D3012010BD4FF0E024EE
:103FD00060610F21601706F0CEFE0020A06107206F
:103FE0002061002010BD7047704710B590F83C204C
:103FF000012A22D0012280F83C20CA688C6822F471
:10400000407222434C6822F4806222430C6822F4FE
:10401000006222430C6922F4805222434C6922F44C
:1040200000522243C969002322F480420A430168F6
:104030004A6480F83C30002010BD022010BD000012
:1040400070B590F83C20012A32D0012580F83C5010
:10405000022280F83D2002685368946823F07006BD
:104060000B6833435360134B02689A4214D0B2F189
:10407000804F11D0104B9A420ED0104B9A420BD069
:104080000F4B9A4208D00F4B9A4205D00E4B9A42E2
:1040900002D00E4B9A4204D1496824F080031943A0
:1040A000916080F83D50002180F83C10084670BDBA
:1040B000022070BD000001400004004000080040E4
:1040C000000C004000040140004001400018004086
:1040D00010B5040003D094F83D0010B107E00120B2
:1040E00010BD002084F83C00204600F01FF802209C
:1040F00084F83D00211D206803F0CEF8012084F8EB
:10410000460084F83E0084F83F0084F8400084F8BC
:10411000410084F8420084F8430084F8440084F8A5
:10412000450084F83D00002010BD000008B500687F
:104130002649274A884207D1106840F001001060E4
:10414000106800F0010036E02149224B091F984217
:1041500005D1086840F00200086008681EE01E4BA8
:10416000984208D1086840F004000860086800F030
:104170000400009008BD194B984207D1086840F030
:1041800008000860086800F00800F2E71449884257
:1041900007D1106840F002001060106800F00200C3
:1041A000E7E710498842E5D1106840F4003010601C
:1041B000106800F400300090002205211920FEF75D
:1041C0007FFDBDE808401920FEF76CBD00000140EE
:1041D000443802400004004000080040000C004049
:1041E000000401400044014090F83D10012901D035
:1041F00001207047022180F83D1000681149884273
:1042000014D0B0F1804F11D00F4988420ED00F4921
:1042100088420BD00E49884208D00E49884205D00A
:104220000D49884202D00D49884204D1816801F0CD
:104230000701062903D0016841F001010160002057
:1042400070470000000001400004004000080040EA
:10425000000C0040000401400040014000180040F4
:1042600070B5044690F83C000025012817D00126BF
:1042700084F83C60022084F83D002068826822F0C7
:10428000770222F47F4282600868502838D00DDC23
:1042900020284FD005DC90B3102811D14AE002202D
:1042A00070BD302846D040280AD13BE060282FD08E
:1042B00070280DD0B0F5805F03D0B0F5005F12D04C
:1042C000012584F83D60002084F83C00284670BD3C
:1042D000CB68D1E90121206803F04FF8206881689C
:1042E00041F0770109E0CB68D1E90121206803F0B2
:1042F00044F82068816841F480418160E1E719E079
:10430000CA684968206803F00DF95021206806E06A
:10431000CA684968206803F016F96021206803F034
:1043200036F8CEE7CA684968206803F0FBF84021F8
:104330002068F4E7226801461046F0E7704770B540
:104340000446006801694FF00005C943890715D488
:10435000C168C943890711D4E91E01610120207792
:10436000206880698007204602D0FFF7E7FF04E05D
:1043700000F07EF9204600F010FA257720680169E8
:10438000C943490717D4C168C943490713D46FF01B
:1043900004010161022020772068806910F4407FC9
:1043A000204602D0FFF7CAFF04E000F061F9204682
:1043B00000F0F3F9257720680169C943090716D48D
:1043C000C168C943090712D46FF0080101610420D4
:1043D00020772068C0698007204602D0FFF7AEFF33
:1043E00004E000F045F9204600F0D7F92577206871
:1043F0000169C943C90617D4C168C943C90613D4A2
:104400006FF010010161082020772068C06910F466
:10441000407F204602D0FFF791FF04E000F028F92A
:10442000204600F0BAF9257720680169C943C90719
:1044300008D1C168C943C90704D1891E016120465A
:1044400000F014FA20680169C943090609D4C1685B
:10445000C943090605D46FF0800101612046FFF7CA
:10446000C2FD20680169C943490609D4C168C9432E
:10447000490605D46FF040010161204600F014FAAE
:1044800020680169C94389060BD4C168C9438906FC
:1044900007D46FF0200101612046BDE87040FFF7AE
:1044A000A3BD70BD2DE9F04186B0044614216846D5
:1044B000FCF709F95F4A20685F4902240125904210
:1044C00010D1086840F0100008600868694600F0E4
:1044D000100005904FF4D4408DE831005748CDE9E5
:1044E00003458AE0564ADFF85C8190421AD1086899
:1044F00040F0040008600868694600F00400059078
:1045000090158DE83100039440460494FDF76CFF4C
:104510004D48FFF769FE00214B4800F03FF90421A8
:1045200049481AE0494A032690421BD1086840F0E6
:10453000080008600868694600F00800059010143B
:104540008DE8710042480494FDF74EFF3E489030DC
:10455000FFF74AFE3C480821903000F01FF906B0F2
:10456000BDE8F0813B4A904223D1086840F08000CA
:1045700008600868694600F0800005904FF4E0503C
:104580008DE83100039434480494FDF72DFF2E4844
:10459000D830FFF729FE2C480021D83000F0FEF873
:1045A00029480421D83000F0F9F827480821D830EC
:1045B000D3E72A4A4027904222D1086840F480700D
:1045C0000860086800F480700590086840F00400F6
:1045D000086008680097CDE9014500F00400CDE9C6
:1045E0000460694603941E48FDF7FEFE0097CDE97E
:1045F0000145CDE9034669464046FDF7F5FEAEE7C5
:10460000184A9042ABD1086840F020000860086862
:104610000097CDE9014500F02000CDE9046069462E
:1046200003941148FDF7E0FE1048FFF7DDFD00217F
:104630000E4892E70000014030380240001002406E
:104640000004004000080240280D0020000800403F
:10465000000C0240000C0040001C0240000401401D
:10466000002002400044014000140240900E00204F
:10467000704770B5044690F83C0000260D460128AE
:104680000FD0012084F83C006AB1042A1DD0082A0A
:104690002FD00C2A3FD00126002084F83C00304661
:1046A00070BD022070BD206802F07AFE206881692A
:1046B00041F0080181612068816921F00401816174
:1046C000206881692A69114311E0206802F098FE90
:1046D0002068816941F4006181612068816921F469
:1046E00080618161206881692A6941EA02218161D2
:1046F000D2E7206802F0BAFE2068C16941F00801E3
:10470000C1612068C16921F00401C1612068C169EB
:104710002A69114311E0206802F0DCFE2068C169BB
:1047200041F40061C1612068C16921F48061C16107
:104730002068C1692A6941EA0221C161ACE710B56C
:10474000040003D094F83D0010B107E0012010BD33
:10475000002084F83C00204600F01EF8022084F877
:104760003D00211D206802F097FD012084F84600DD
:1047700084F83E0084F83F0084F8400084F841004B
:1047800084F8420084F8430084F8440084F845002B
:1047900084F83D00002010BD7047704710B50446F6
:1047A00049B104290AD008290BD094F84100012806
:1047B0000AD0012010BD94F83E00F8E794F83F00BD
:1047C000F5E794F84000F2E70220B1B3042938D0AD
:1047D000082939D084F841000122206802F0C0FD88
:1047E0001B4920681B4A884201D0904203D1436C88
:1047F00043F4004343642068884213D0B0F1804FF3
:1048000010D0154988420DD0144988420AD0144965
:10481000884207D0904205D01249884202D01249FE
:10482000884204D1816801F00701062903D001689C
:1048300041F001010160002010BDFFE784F83E0057
:10484000CAE784F83F00C7E784F84000C4E70000E7
:104850000000014000040140000400400008004046
:10486000000C004000400140001800400B4910B50A
:10487000884212D180210A48FDF79EFE0949D1E9FC
:104880000402431C42F10002C1E90432C00704D112
:10489000BDE81040022008F0F1BE10BD280D002038
:1048A0000020024038020020704770B5040004D098
:1048B00094F83D00002510B106E0012070BD84F899
:1048C0003C50204600F022F8242084F83D00206867
:1048D000C16821F40051C160204602F0C3FE206887
:1048E000016921F4904101612068416921F02A01A8
:1048F00041612068C16841F40051C16025642020F5
:1049000084F83D0084F83E00002070BD2DE9F04F92
:1049100087B0044614216846FBF7D5FE8748DFF8C8
:1049200018821438D4F800C0844A022103270723D0
:10493000002506154FF0400B4FF0006AC44565D1C5
:10494000D2F800C04CF0100CC2F800C0126802F09F
:1049500010020592026842F002020260026802F050
:1049600002020592026842F0010202600068894674
:1049700000F0010005908020CDE900090DF1080C40
:1049800098468CE8A00169466D48FDF72DFD701032
:10499000CDE900090DF10809694689E8A0016948D7
:1049A000FDF722FD694F6848D046C7E903567D618F
:1049B000BD6187E80109B001C7E9075038467D624B
:1049C000FDF756FC08B1FCF75AFD6763BC635F4F07
:1049D0005D48603730383860C7E90185C7E903565C
:1049E0007D614FF44030BD61C7E9075038467D62B4
:1049F000FDF73EFC08B1FCF742FDA763002205214C
:104A00002520BC63FEF75CF925203DE0DFF84081FE
:104A10004FF40039C4453CD1484A121FD2F800C0B7
:104A20004CF4802CC2F800C0126802F48022059277
:104A3000026842F0040202600068049300F004007F
:104A400005904FF440608DE8A30069464148FDF7AA
:104A5000CBFC3E4F4048C0373860C7E901A5C7E9E5
:104A600003567D61BD61C7E9075938467D62FDF790
:104A7000FFFB08B1FCF703FDA763002204212720F8
:104A8000BC63FEF71DF92720FEF70CF907B0BDE85F
:104A9000F08F324B9C45F9D1136843F0200313602B
:104AA000126802F020020592026842F040020260A1
:104AB000006800F0400005904FF484408DE8A300AA
:104AC0000820049069462648FDF78EFC1E48254FB5
:104AD00090384FF020683860C7E90185C7E9035670
:104AE0007D61BD61C7E9075938467D62FDF7C0FBAE
:104AF00008B1FCF7C4FCA763BC631A4F12486037C7
:104B00001838C7E903567D61BD6187E801094FF494
:104B10008030C7E9075038467D62FDF7A9FB08B130
:104B2000FCF7ADFC6763002205214720BC63FEF75C
:104B3000C7F84720A8E700000010014044380240B1
:104B40000004024000000240B8640240A40F0020AC
:104B50000048004000080240286002400014014064
:104B600000180240C41000202DE9F843044690F8D4
:104B70003D001F4615460E4620284BD1C6B1BDB19B
:104B800094F83C00012845D0012084F83C004FF007
:104B90000008C4F84080212084F83D00FDF71AFD8C
:104BA000A5848146E584A068B0F5805F03D004E069
:104BB0000120BDE8F883206920B13546002684F83D
:104BC0003C800EE00025FAE78021204602F0D0FD6F
:104BD000A0B9ADB115F8010B21684860E08C401E0A
:104BE000E084E08C4B464FF0000200970028EBD1A8
:104BF0004FF04001204602F0BBFD30B10320D8E762
:104C000036F8020BC0F30800E6E7202084F83D00E8
:104C10000020CEE70220CCE7FEE701684A69D243D4
:104C200052050FD46FF480624A61002140F8301FB2
:104C3000202242738173026942F00402026101730F
:104C400001207047002070472DE9F84F04460068A6
:104C500089460B9E01689846174641F480610160C1
:104C60002068016841F48071016000964FF0011BDB
:104C70000022594620460A9B00F0DEF84FF4007AE5
:104C800040B120680068C00501D5C4F840A00320E9
:104C9000BDE8F88F216809F0FE0008613346284915
:104CA00020460A9A00F0FCF8F0BB20684169806950
:104CB0000090324620460A9900F073F940B1206C0A
:104CC00004283AD12068016841F40071016034E0A1
:104CD000FDB2B8F1010F09D02168380A08613246E7
:104CE00020460A9900F05DF90028E8D120680561A6
:104CF000324620460A9900F054F90028DFD1206896
:104D0000016841F4807101600096002259462046F6
:104D10000A9B00F091F80028B3D1216809F0FF0048
:104D200040F00100086100E007E0334604492046F6
:104D30000A9A00F0B5F80028AAD00120A8E70000E0
:104D4000020001002DE9F843044600680D46DDE944
:104D5000089701689846164641F4807101604B46F9
:104D600000224FF001112046009700F065F848B18D
:104D700020680068C00502D54FF40070206403204D
:104D8000BDE8F883216805F0FE0008613B464A460D
:104D90001549204600F084F888B920684169806987
:104DA00000903A464946204600F0FBF848B1206C96
:104DB000042804D12068016841F4007101600120D9
:104DC000DEE7F5B2B8F1010F09D02168300A0861B9
:104DD0003A464946204600F0E4F80028E7D120682A
:104DE00005610020CCE700000200010070B5164606
:104DF0000D4604460DE02046FFF70FFF08B10120E5
:104E000070BD681C05D0FDF7E5FB801BA84207D8E4
:104E100035B120684069C0434007ECD4002070BD24
:104E2000002044F8300F20216173A073216941F004
:104E3000200121612073E2E72DE9F0471D469046ED
:104E40000E460446C1F30747DDF8209008E0681CD1
:104E500006D0FDF7BFFBA0EB0900A8420FD875B143
:104E60002068012F18D0806926EA00000004000C99
:104E700014D000204045EAD00020BDE8F087002093
:104E800044F8300F20216173A073216941F02001A3
:104E9000216120730120F0E74069E5E70120E9E79F
:104EA0002DE9F047984615460E4604464FF0000996
:104EB0004FF0200AC1F3074723E020684069C04350
:104EC000400515D42068016841F400710160216833
:104ED0006FF480604861C4F8309084F83DA084F895
:104EE0003E90216C41F00401216484F83C901EE066
:104EF000681C06D0FDF76EFBA0EB0800A8420AD89C
:104F00004DB12068012F15D0806926EA0000000409
:104F1000000C0DD0D1E744F8309F84F80DA084F840
:104F20000E90216941F02001216184F80C9001204C
:104F3000BDE8F0874069E8E72DE9F04116460D46E7
:104F4000044600274FF0200817E04069C043C00620
:104F50000DD454F8301B6FF01000486144F80D7BFD
:104F600004F81D89A777206A2062277717E0FDF7EC
:104F700031FB801BA84208D83DB120684169C94374
:104F80004906E2D40020BDE8F08144F8307F84F87F
:104F90000D80A773206940F0200020612773012055
:104FA000F1E770B516460D4604460DE02046FFF7C2
:104FB00034FE08B1012070BD681C05D0FDF70AFB66
:104FC000801BA84207D835B120684069C04300065D
:104FD000ECD4002070BD002044F8300F2021617314
:104FE000A073216941F0200121612073E2E70000F4
:104FF0007FB500241548009401940294124903944B
:1050000001604FF40031C0E901140461047680F8B6
:1050100020400F49C0E90A140125C561C46080F829
:1050200030404561FCF7D5FA08B1FCF728FA1020AA
:10503000CDE90005694602940448FCF721FA0028EE
:1050400001D0FCF71CFA7FBD002001404C09002074
:105050000100000F7FB500241548009401940294CC
:105060001249039401604FF40031C0E90114046156
:10507000047680F820400F49C0E90A140125C56173
:10508000C46080F830404561FCF7A3FA08B1FCF732
:10509000F6F90820CDE90005694602940448FCF7BA
:1050A000EFF9002801D0FCF7EAF97FBD00220140AA
:1050B000940900200100000F0F4810B50D49016050
:1050C0000321416000214FF410228160C0E90312E6
:1050D0004FF400124261017641768176C176017704
:1050E0004177FCF722FE002803D0BDE81040FCF712
:1050F000C6B910BD00640040DC0900200F4810B59F
:105100000D4901600321416000214FF410228160AC
:10511000C0E903124FF400124261017641768176B4
:10512000C17601774177FCF700FE002803D0BDE887
:105130001040FCF7A4B910BD00680040040A00202C
:10514000074910B5054808600846FCF79CFF002891
:1051500003D0BDE81040FCF792B910BD003002400A
:1051600008000020294808B5016841F48001016069
:10517000016801F480010091016841F400110160AF
:105180000068002200F40010009005210C20FDF7BB
:1051900097FD0C20FDF786FD002205212F20FDF74D
:1051A0008FFD2F20FDF77EFD002205213920FDF720
:1051B00087FD3920FDF776FD002205213A20FDF715
:1051C0007FFD3A20FDF76EFD002205213B20FDF713
:1051D00077FD3B20FDF766FD002205214420FDF709
:1051E0006FFD4420FDF75EFD002205214520FDF7FF
:1051F00067FD4520FDF756FD002205214620FDF7FD
:105200005FFDBDE808404620FDF74CBD3038024048
:1052100000B587B01C2206496846FBF7F8F9002163
:10522000684607F030F90349086007B000BD000088
:10523000A4E10008000000202DE9F04387B014210C
:105240006846FBF740FA6C480025016841F002010E
:105250000160016801F002010591016841F040011F
:105260000160016801F040010591016841F0010110
:105270000160016801F001010591016841F0080138
:105280000160016801F008010591016841F0040125
:105290000160016801F004010591016841F4807129
:1052A0000160016801F480710591016841F02001FD
:1052B0000160016801F020010591016841F0800161
:1052C0000160016801F080010591016841F0100161
:1052D00001600068494E00F0100005900022802116
:1052E0003046FDF771F9464F012240213846FDF75F
:1052F0006BF9DFF81081012210214046FDF764F9B7
:10530000DFF80491012241F201014846FDF75CF902
:1053100001248020CDE9000469463046CDE90245EC
:10532000FDF762F84020CDE9000402946946384652
:105330000394FDF759F809204FF40416CDE900064F
:10534000694602943846FDF74FF80720CDE900057D
:105350002E4F694638460295FDF746F8CDE90045DF
:10536000694640460294FDF73FF81020CDE900045D
:10537000022569464046CDE90245FDF735F8302063
:10538000CDE90006694602943846FDF72DF8200362
:10539000CDE900040294694648460394FDF724F8D9
:1053A0000094694648460194CDE90245FDF71CF892
:1053B000062100220846FDF783FC0620FDF772FC5B
:1053C000002205210920FDF77BFC0920FDF76AFC7E
:1053D000002205210A20FDF773FC0A20FDF762FC7C
:1053E000002205211720FDF76BFC1720FDF75AFC62
:1053F00007B0BDE8F08300003038024000200240D2
:105400000018024000000240000402400008024070
:105410000D4810B50B4901600C49416000214FF463
:1054200080428160C0E9031241618161C161016212
:10543000FDF7D6F8002803D0BDE81040FCF71FB8F0
:1054400010BD0000005400402C0A0020801A060005
:105450000D4810B50B4901600C49416000214FF423
:1054600080428160C0E9031241618161C1610162D2
:10547000FDF7B6F8002803D0BDE81040FBF7FFBFEA
:1054800010BD000000580040800A0020801A06006D
:105490000D4810B50B4901600C49416000214FF4E3
:1054A00080428160C0E9031241618161C161016292
:1054B000FDF796F8002803D0BDE81040FBF7DFBFEA
:1054C00010BD0000005C0040D40A0020801A0600D5
:1054D000074910B5054808600846FEF7C7FA0028D6
:1054E00003D0BDE81040FBF7CABF10BD000806504E
:1054F000880B00200C4810B50A49016000217C226D
:10550000C0E9011240F67F42C0E903214161816197
:10551000FEF7DAFA002803D0BDE81040FBF7AFBF72
:1055200010BD000000280040980B0020104810B566
:105530000E4901604FF482714160002102228160B6
:10554000C0E9031201224261520282613822C0E99D
:105550000721416281620A21C162FEF743FB0028F4
:1055600003D0BDE81040FBF78ABF10BD00300140FA
:10557000B80B0020104810B50E4901604FF482713D
:105580004160002102228160C0E9031201224261D0
:10559000520282613822C0E90721416281620A21F8
:1055A000C162FEF71FFB002803D0BDE81040FBF7E7
:1055B00066BF10BD00380040100C002010B588B048
:1055C0001C216846FBF77FF8144813490024C0E902
:1055D000001441F28731C0E9024104618461FEF7A1
:1055E00077FD08B1FBF74BFF0C48FFF7A8F808B1AF
:1055F000FBF745FF6020CDE90004029400226946D4
:1056000006480494FFF735F808B1FBF738FF034864
:10561000FEF748FF08B010BD00440140900E002086
:1056200010B596B000240F94109411941294139412
:105630001C2168461494FBF746F8202107A8FBF7C5
:1056400042F8354833490160A721C0E9011441F20D
:105650008731C0E9031444618461FEF739FD08B164
:10566000FBF70DFF4FF480500F900FA92A48FEF76B
:10567000F7FD08B1FBF703FF2748FFF760F808B113
:10568000FBF7FDFE139413A923481494FEF7D8FCEE
:1056900008B1FBF7F4FE602000904FF47A70CDE97A
:1056A0000104039404940594002269461A48069460
:1056B000FEF7DFFF08B1FBF7E2FE04226946164859
:1056C000FEF7D7FF08B1FBF7DAFE08226946124859
:1056D000FEF7CFFF08B1FBF7D2FE0C2269460E4859
:1056E000FEF7C7FF08B1FBF7CAFE079408940994B8
:1056F0004FF400500A94CDE90B4007A906480E94D8
:10570000FEF773FC08B1FBF7BAFE0348FEF7CAFECA
:1057100016B010BD00000140280D002010B58EB05D
:1057200000240794089409940A940B941C21684659
:105730000C94FAF7C8FF1E481C49C0E9001442F255
:10574000CF01C0E9024104618461FEF7C1FC08B1E8
:10575000FBF795FE4FF48050079007A91448FEF719
:105760007FFD08B1FBF78BFE1148FEF7E8FF08B19B
:10577000FBF785FE0B940BA90D480C94FEF760FC1B
:1057800008B1FBF77CFE6020CDE9000402940822FA
:10579000694607480494FEF76CFF08B1FBF76FFEFB
:1057A0000348FEF77FFE0EB010BD0000000400406D
:1057B000700D002010B58EB0002407940894099451
:1057C0000A940B941C2168460C94FAF77CFF1E483F
:1057D0001C490160A721C0E901144FF6FF71C0E91F
:1057E00003148461FEF774FC08B1FBF748FE4FF424
:1057F0008050079007A91448FEF732FD08B1FBF767
:105800003EFE1148FEF79BFF08B1FBF738FE0B94F4
:105810000BA90D480C94FEF713FC08B1FBF72FFE03
:105820006020CDE9000402940822694606480494E9
:10583000FEF71FFF08B1FBF722FE0348FEF732FE1A
:105840000EB010BD00080040B80D002010B58EB09D
:1058500000240794089409940A940B941C21684628
:105860000C94FAF730FF26482449C0E900144FF69B
:10587000FF71C0E9024104618461FEF729FC08B1AF
:10588000FBF7FDFD4FF48050079007A91C48FEF779
:10589000E7FC08B1FBF7F3FD1948FEF750FF08B12C
:1058A000FBF7EDFD0B940BA915480C94FEF7C8FB14
:1058B00008B1FBF7E4FD6020CDE90004029400226A
:1058C00069460F480494FEF7D4FE08B1FBF7D7FDF4
:1058D000042269460A48FEF7CCFE08B1FBF7CFFD6B
:1058E000082269460648FEF7C4FE08B1FBF7C7FD6B
:1058F0000348FEF7D7FD0EB010BD0000000C0040BD
:10590000000E002010B596B000240F94109411944E
:10591000129413941C2168461494FAF7D4FE2021A3
:1059200007A8FAF7D0FE2D482B490160A721C0E94E
:10593000011444F61F61C0E9031444618461FEF759
:10594000C7FB08B1FBF79BFD4FF480500F900FA9E8
:105950002248FEF785FC08B1FBF791FD1F48FEF7D2
:10596000EEFE08B1FBF78BFD139413A91B481494AA
:10597000FEF766FB08B1FBF782FD602000904FF454
:105980007A70CDE9010403940494059400226946D9
:1059900012480694FEF76DFE08B1FBF770FD042275
:1059A00069460E48FEF765FE08B1FBF768FD0794EF
:1059B000089409944FF400500A94CDE90B4007A9CC
:1059C00006480E94FEF711FB08B1FBF758FD03489B
:1059D000FEF768FD16B010BD00040140480E00201F
:1059E0000C4810B50A4901604FF4E13141600021D3
:1059F00081600C22C160C0E904128161C161FEF7BF
:105A000054FF002803D0BDE81040FBF738BD10BD9F
:105A100000100140D80E00200D4810B50B49016060
:105A20000C49416000214FF480628160C0E903129B
:105A30000C22C0E90521C161FEF737FF002803D021
:105A4000BDE81040FBF71BBD10BD00000048004042
:105A50001C0F0020A08601000C4810B50A49016007
:105A60004FF4E1314160002181600C22C160C0E946
:105A700004128161C161FEF718FF002803D0BDE860
:105A80001040FBF7FCBC10BD00140140600F00206B
:105A9000FEE770470148FDF73DBA0000A41300205F
:105AA0002DE9F04106680D460446316C06EB4510C1
:105AB000D0F8083BD4F810C04FF400474FF0200E48
:105AC00004F57172BCF1010F08D0DFF898C0614590
:105AD00038D1190431D5C0F8087B3FE0224E5FEA87
